{
  "contractName": "AnalysisContract",
  "abi": [
    {
      "inputs": [],
      "stateMutability": "nonpayable",
      "type": "constructor"
    },
    {
      "inputs": [
        {
          "internalType": "uint256",
          "name": "",
          "type": "uint256"
        }
      ],
      "name": "analysisResults",
      "outputs": [
        {
          "internalType": "address",
          "name": "user",
          "type": "address"
        },
        {
          "internalType": "string",
          "name": "itemName",
          "type": "string"
        },
        {
          "internalType": "string",
          "name": "result",
          "type": "string"
        }
      ],
      "stateMutability": "view",
      "type": "function"
    },
    {
      "inputs": [],
      "name": "owner",
      "outputs": [
        {
          "internalType": "address",
          "name": "",
          "type": "address"
        }
      ],
      "stateMutability": "view",
      "type": "function"
    },
    {
      "inputs": [
        {
          "internalType": "string",
          "name": "_itemName",
          "type": "string"
        },
        {
          "internalType": "string",
          "name": "_result",
          "type": "string"
        }
      ],
      "name": "saveAnalysisResult",
      "outputs": [],
      "stateMutability": "nonpayable",
      "type": "function"
    },
    {
      "inputs": [],
      "name": "getAnalysisResultsCount",
      "outputs": [
        {
          "internalType": "uint256",
          "name": "",
          "type": "uint256"
        }
      ],
      "stateMutability": "view",
      "type": "function"
    },
    {
      "inputs": [
        {
          "internalType": "uint256",
          "name": "index",
          "type": "uint256"
        }
      ],
      "name": "getAnalysisResult",
      "outputs": [
        {
          "internalType": "address",
          "name": "",
          "type": "address"
        },
        {
          "internalType": "string",
          "name": "",
          "type": "string"
        },
        {
          "internalType": "string",
          "name": "",
          "type": "string"
        }
      ],
      "stateMutability": "view",
      "type": "function"
    }
  ],
  "bytecode": "0x608060405234801561001057600080fd5b50336000806101000a81548173ffffffffffffffffffffffffffffffffffffffff021916908373ffffffffffffffffffffffffffffffffffffffff160217905550610aa6806100606000396000f3fe608060405234801561001057600080fd5b50600436106100575760003560e01c80632ebf2c551461005c5780638048d1a11461007a57806387f518fe146100965780638c9dafd0146100c85780638da5cb5b146100fa575b600080fd5b610064610118565b60405161007191906108a2565b60405180910390f35b610094600480360381019061008f91906106f6565b610125565b005b6100b060048036038101906100ab9190610762565b61020e565b6040516100bf9392919061083d565b60405180910390f35b6100e260048036038101906100dd9190610762565b610378565b6040516100f19392919061083d565b60405180910390f35b6101026105b2565b60405161010f9190610822565b60405180910390f35b6000600180549050905090565b600060405180606001604052803373ffffffffffffffffffffffffffffffffffffffff168152602001848152602001838152509050600181908060018154018082558091505060019003906000526020600020906003020160009091909190915060008201518160000160006101000a81548173ffffffffffffffffffffffffffffffffffffffff021916908373ffffffffffffffffffffffffffffffffffffffff16021790555060208201518160010190805190602001906101e99291906105d6565b5060408201518160020190805190602001906102069291906105d6565b505050505050565b6001818154811061021e57600080fd5b90600052602060002090600302016000915090508060000160009054906101000a900473ffffffffffffffffffffffffffffffffffffffff1690806001018054610267906109b8565b80601f0160208091040260200160405190810160405280929190818152602001828054610293906109b8565b80156102e05780601f106102b5576101008083540402835291602001916102e0565b820191906000526020600020905b8154815290600101906020018083116102c357829003601f168201915b5050505050908060020180546102f5906109b8565b80601f0160208091040260200160405190810160405280929190818152602001828054610321906109b8565b801561036e5780601f106103435761010080835404028352916020019161036e565b820191906000526020600020905b81548152906001019060200180831161035157829003601f168201915b5050505050905083565b600060608060018054905084106103c4576040517f08c379a00000000000000000000000000000000000000000000000000000000081526004016103bb90610882565b60405180910390fd5b600060018581548110610400577f4e487b7100000000000000000000000000000000000000000000000000000000600052603260045260246000fd5b90600052602060002090600302016040518060600160405290816000820160009054906101000a900473ffffffffffffffffffffffffffffffffffffffff1673ffffffffffffffffffffffffffffffffffffffff1673ffffffffffffffffffffffffffffffffffffffff16815260200160018201805461047f906109b8565b80601f01602080910402602001604051908101604052809291908181526020018280546104ab906109b8565b80156104f85780601f106104cd576101008083540402835291602001916104f8565b820191906000526020600020905b8154815290600101906020018083116104db57829003601f168201915b50505050508152602001600282018054610511906109b8565b80601f016020809104026020016040519081016040528092919081815260200182805461053d906109b8565b801561058a5780601f1061055f5761010080835404028352916020019161058a565b820191906000526020600020905b81548152906001019060200180831161056d57829003601f168201915b5050505050815250509050806000015181602001518260400151935093509350509193909250565b60008054906101000a900473ffffffffffffffffffffffffffffffffffffffff1681565b8280546105e2906109b8565b90600052602060002090601f016020900481019282610604576000855561064b565b82601f1061061d57805160ff191683800117855561064b565b8280016001018555821561064b579182015b8281111561064a57825182559160200191906001019061062f565b5b509050610658919061065c565b5090565b5b8082111561067557600081600090555060010161065d565b5090565b600061068c610687846108ee565b6108bd565b9050828152602081018484840111156106a457600080fd5b6106af848285610976565b509392505050565b600082601f8301126106c857600080fd5b81356106d8848260208601610679565b91505092915050565b6000813590506106f081610a59565b92915050565b6000806040838503121561070957600080fd5b600083013567ffffffffffffffff81111561072357600080fd5b61072f858286016106b7565b925050602083013567ffffffffffffffff81111561074c57600080fd5b610758858286016106b7565b9150509250929050565b60006020828403121561077457600080fd5b6000610782848285016106e1565b91505092915050565b6107948161093a565b82525050565b60006107a58261091e565b6107af8185610929565b93506107bf818560208601610985565b6107c881610a48565b840191505092915050565b60006107e0600d83610929565b91507f496e76616c696420696e646578000000000000000000000000000000000000006000830152602082019050919050565b61081c8161096c565b82525050565b6000602082019050610837600083018461078b565b92915050565b6000606082019050610852600083018661078b565b8181036020830152610864818561079a565b90508181036040830152610878818461079a565b9050949350505050565b6000602082019050818103600083015261089b816107d3565b9050919050565b60006020820190506108b76000830184610813565b92915050565b6000604051905081810181811067ffffffffffffffff821117156108e4576108e3610a19565b5b8060405250919050565b600067ffffffffffffffff82111561090957610908610a19565b5b601f19601f8301169050602081019050919050565b600081519050919050565b600082825260208201905092915050565b60006109458261094c565b9050919050565b600073ffffffffffffffffffffffffffffffffffffffff82169050919050565b6000819050919050565b82818337600083830152505050565b60005b838110156109a3578082015181840152602081019050610988565b838111156109b2576000848401525b50505050565b600060028204905060018216806109d057607f821691505b602082108114156109e4576109e36109ea565b5b50919050565b7f4e487b7100000000000000000000000000000000000000000000000000000000600052602260045260246000fd5b7f4e487b7100000000000000000000000000000000000000000000000000000000600052604160045260246000fd5b6000601f19601f8301169050919050565b610a628161096c565b8114610a6d57600080fd5b5056fea2646970667358221220836be690c698dacf8ff75327a980e271ccd49f4d4dc801b3c168cb520663534864736f6c63430008000033",
  "immutableReferences": {},
  "source": "// SPDX-License-Identifier: UNLICENSED\r\npragma solidity ^0.8.0;\r\n\r\ncontract AnalysisContract {\r\n    address public owner;\r\n\r\n    struct AnalysisResult {\r\n        address user;\r\n        string itemName;\r\n        string result;\r\n    }\r\n\r\n    AnalysisResult[] public analysisResults;\r\n\r\n    constructor() {\r\n        owner = msg.sender;\r\n    }\r\n\r\n    modifier onlyOwner() {\r\n        require(msg.sender == owner, \"Only the owner can call this function\");\r\n        _;\r\n    }\r\n\r\n    function saveAnalysisResult(string memory _itemName, string memory _result) public {\r\n        AnalysisResult memory newResult = AnalysisResult({\r\n        user: msg.sender,\r\n        itemName: _itemName,\r\n        result: _result\r\n        });\r\n        analysisResults.push(newResult);\r\n    }\r\n\r\n    function getAnalysisResultsCount() public view returns (uint) {\r\n        return analysisResults.length;\r\n    }\r\n\r\n    function getAnalysisResult(uint index) public view returns (address, string memory, string memory) {\r\n        require(index < analysisResults.length, \"Invalid index\");\r\n        AnalysisResult memory result = analysisResults[index];\r\n        return (result.user, result.itemName, result.result);\r\n    }\r\n}\r\n",
  "sourcePath": "D:\\Projet\\Agro\\contracts\\AnalysisContract.sol",
  "compiler": {
    "name": "solc",
    "version": "0.8.0+commit.c7dfd78e.Emscripten.clang"
  },
  "schemaVersion": "3.4.14",
  "updatedAt": "2023-07-27T17:05:48.753Z",
  "devdoc": {
    "kind": "dev",
    "methods": {},
    "version": 1
  },
  "userdoc": {
    "kind": "user",
    "methods": {},
    "version": 1
  }
}